:020000040000FA
:100000000C9463000C948B000C948B000C948B006C
:100010000C948B000C948B000C948B000C94840536
:100020000C948B000C948B000C948B000C948B0024
:100030000C948B000C948B000C948B000C948B0014
:100040000C943A050C948B000C9406060C94E00575
:100050000C948B000C948B000C948B000C948B00F4
:100060000C948B000C948B000000000024002700EF
:100070002A000000000023002600290000000008DC
:10008000000201000003040700000000000000005F
:10009000010204081020408001020408102001021F
:1000A0000408102000000000250028002B00040494
:1000B0000404040404040202020202020303030310
:1000C000030302001E0811241FBECFEFD8E0DEBFDD
:1000D000CDBF12E0A0E0B1E0E0E0F4E102C00590A5
:1000E0000D92A23CB107D9F723E0A2ECB2E001C027
:1000F0001D92A838B207E1F710E0C3E6D0E004C0D3
:100100002197FE010E94E909C236D107C9F70E9472
:1001100038060C94FE090C940000833081F028F41A
:10012000813099F08230A9F008958730A9F08830A5
:10013000C9F08430B1F4809180008F7D03C080913C
:1001400080008F7780938000089584B58F7784BD79
:10015000089584B58F7DFBCF8091B0008F77809319
:10016000B00008958091B0008F7DF9CFCF93DF93D9
:10017000282F30E0F901E458FF4F8491F901E0574E
:10018000FF4FD491F901E255FF4FC491CC23A1F068
:1001900081110E948D00EC2FF0E0EE0FFF1FEE5852
:1001A000FF4FA591B491EC91ED2381E090E009F42B
:1001B00080E0DF91CF91089580E090E0FACF1F9327
:1001C000CF93DF93282F30E0F901E458FF4F84915B
:1001D000F901E057FF4FD491F901E255FF4FC49167
:1001E000CC23A9F0162F81110E948D00EC2FF0E096
:1001F000EE0FFF1FEC55FF4FA591B4918FB7F89408
:10020000EC91111108C0D095DE23DC938FBFDF91F4
:10021000CF911F910895DE2BF8CFCF93DF9390E01D
:10022000FC01E057FF4F249182559F4FFC018491C0
:100230008823D1F090E0880F991FFC01E859FF4F07
:10024000A591B491FC01EC55FF4FC591D49162305A
:1002500071F49FB7F8943C91822F809583238C93FF
:10026000E8812E2B28839FBFDF91CF9108958FB710
:10027000F894EC912E2B2C938FBFF6CF4F925F9278
:100280006F927F928F929F92AF92BF92CF92DF92A6
:10029000EF92FF920F931F93CF93DF9300D000D084
:1002A0001F92CDB7DEB78C012A013B01809102017C
:1002B0008830C9F08F3F09F47FC00F900F900F90E6
:1002C0000F900F90DF91CF911F910F91FF90EF90C2
:1002D000DF90CF90BF90AF909F908F907F906F9066
:1002E0005F904F900895E2ECF0E084918D8387FD5C
:1002F000E4CF61E088E00E940D018D81882321F028
:100300009D81923009F05CC14801B12CA12C60E0C4
:1003100072E18AE790E0A50198010E94AB09298368
:100320003A834B835C8369017A0181E0C81AD10862
:10033000E108F1089FEFC916D104E104F10409F0C6
:100340000CF413C160E472E48FE090E0A501980121
:100350000E94AB0969017A0181E0C81AD108E1085D
:10036000F1089D81923009F098C08FEFC816D10432
:10037000E104F10409F00CF4DDC160E970ED83E003
:1003800090E0A50198010E94AB0969017A0191E012
:10039000C91AD108E108F1088FEFC816D104E104A9
:1003A000F10411F00CF0A3C183E09091B100987FAB
:1003B000892B8093B100E1C088E080930201E2ECD8
:1003C000F0E094919D839F3F09F477CF913029F11C
:1003D00058F0923009F43FC08D8187FD6ECF61E007
:1003E00088E00E940D018CCF14BC15BC84B58260DE
:1003F00084BD85B5816085BDE6EBF0E0E491F0E079
:10040000EE0FFF1FEC55FF4F85919491E8E9F0E066
:10041000E491E093DE021D826CCF10928000109276
:1004200081008091810088608093810080918100AB
:10043000816080938100E6EBF0E0E491F0E0EE0F64
:10044000FF1FEC55FF4F85919491E8E9F0E0E491AE
:10045000E093DD024ECF1092B0001092B100809177
:10046000B00082608093B0008091B1008160809381
:10047000B100E6EBF0E0E491F0E0EE0FFF1FEC5589
:10048000FF4F859194919093DC028093DB02E8E921
:10049000F0E0E491E093DA022CCF9FEFC916D1048B
:1004A000E104F10409F00CF489C068E478EE81E01D
:1004B00090E0A50198010E94AB0969017A0181E0F1
:1004C000C81AD108E108F1089D81992309F428C1CF
:1004D0009FEFC916D104E104F10409F00CF41EC128
:1004E00062E17AE780E090E0A50194010E94AB0907
:1004F00069017A0181E0C81AD108E108F1089D81FB
:10050000992309F4EBC08FEFC816D104E104F1047C
:1005100011F008F0BFC086E048CF64E274EF80E0DD
:1005200090E0A50194010E94AB0969017A0181E084
:10053000C81AD108E108F10885E09FEFC916D10477
:10054000E104F10409F008F430CF62E17AE780E0D9
:1005500090E0A50194010E94AB0969017A0191E044
:10056000C91AD108E108F108CECF81E09D8191112F
:100570001CCF95B5987F892B85BD2FEF3FEFA90143
:10058000411451046104710409F043C09D8191300C
:1005900009F45EC0923009F46DC091118ECEC7BCD3
:1005A0002093E7023093E8024093E9025093EA0275
:1005B00080916E00826080936E007FCE82E0D6CF05
:1005C000B12CA12C60E072E18AE790E0A5019801CE
:1005D0000E94AB0969017A0181E0C81AD108E108DB
:1005E000F108C114D10491E0E906F10404F591E0A9
:1005F0008D81813011F680918100887F892B8093D5
:1006000081002FEF3FEFA9014114510461047104EF
:10061000F9F0D801AA0FBB1FA30192010E94CA09D9
:1006200028EE33E040E050E00E948909AFCF68E453
:1006300078EE81E090E0A50198010E94AB09690184
:100640007A0181E0C81AD108E108F10893E0D0CF1F
:10065000D0928900C09288002093E3023093E40294
:100660004093E5025093E60280916F008260809390
:100670006F0023CEC092B3002093DF023093E002DC
:100680004093E1025093E202809170008260809377
:10069000700013CEC980DA80EB80FC809AE0F5947C
:1006A000E794D794C7949A95D1F791E0C91AD108E5
:1006B000E108F10887E079CEC980DA80EB80FC8020
:1006C0008AE0F594E794D794C7948A95D1F791E09E
:1006D000C91AD108E108F10885E04BCF8FEFC816A1
:1006E000D104E104F10409F038F784E042CF68E472
:1006F00078EE81E090E0A50198010E94AB096901C4
:100700007A0191E0C91AD108E108F1088FEFC81603
:10071000D104E104F10411F00CF0FFCE84E045CEE9
:100720008FEFC816D104E104F10411F00CF0D8CE1B
:1007300083E01FCF82E039CE3FB7F8948091D60294
:100740009091D702A091D802B091D90226B5A89B6A
:1007500005C02F3F19F00196A11DB11D3FBFBA2F53
:10076000A92F982F8827BC01CD01620F711D811D13
:10077000911D42E0660F771F881F991F4A95D1F798
:1007800008958F929F92AF92BF92CF92DF92EF9295
:10079000FF926B017C010E949C034B015C01C11420
:1007A000D104E104F104B9F00E949C0368197909AD
:1007B0008A099B09683E73408105910580F321E019
:1007C000C21AD108E108F10888EE880E83E0981E6D
:1007D000A11CB11CE4CFFF90EF90DF90CF90BF90B1
:1007E000AF909F908F9008959091020189130BC054
:1007F000E2ECF0E0E4919FEF90930201E13049F0E8
:1008000028F0E23061F060E00C94DF0010926E009E
:10081000FACF90916F009D7F90936F00F4CF9091ED
:1008200070009D7F9093700091E09093B000909144
:10083000B100987F94609093B1001092B300E3CF21
:10084000AF92BF92CF92DF92EF92FF920F931F93DE
:10085000CF93DF936C017B018B01040F151FEB011C
:100860005E01AE18BF08C017D10759F06991D601D3
:10087000ED91FC910190F081E02DC6010995892B45
:1008800079F7C501DF91CF911F910F91FF90EF9004
:10089000DF90CF90BF90AF900895FC01538D448DB1
:1008A000252F30E0842F90E0821B930B541710F01B
:1008B000CF96089501970895FC01918D828D981728
:1008C00061F0A28DAE0FBF2FB11D5D968C91928D00
:1008D0009F5F9F73928F90E008958FEF9FEF089531
:1008E000FC01918D828D981731F0828DE80FF11DFA
:1008F000858D90E008958FEF9FEF0895FC01918D15
:10090000228D892F90E0805C9F4F821B91098F730D
:10091000992708958BEE92E00E947E0421E0892BB6
:1009200009F420E0822F089580E090E0892B29F0DF
:100930000E948A0481110C9400000895FC01A48D8A
:10094000A80FB92FB11DA35ABF4F2C91848D90E0F1
:1009500001968F739927848FA689B7892C93A089D4
:10096000B1898C91837080648C93938D848D98135E
:1009700006C00288F389E02D80818F7D80830895F1
:10098000EF92FF920F931F93CF93DF93EC0181E0DF
:10099000888F9B8D8C8D98131AC0E889F989808186
:1009A00085FF15C09FB7F894EE89FF896083E889B9
:1009B000F98980818370806480839FBF81E090E0AB
:1009C000DF91CF911F910F91FF90EF900895F62E38
:1009D0000B8D10E00F5F1F4F0F731127E02E8C8DD2
:1009E0008E110CC00FB607FCFACFE889F989808117
:1009F00085FFF5CFCE010E949E04F1CFEB8DEC0F69
:100A0000FD2FF11DE35AFF4FF0829FB7F8940B8F33
:100A1000EA89FB8980818062CFCFCF93DF93EC019D
:100A2000888D8823B9F0AA89BB89E889F9898C91D6
:100A300085FD03C0808186FD0DC00FB607FCF7CF92
:100A40008C9185FFF2CF808185FFEDCFCE010E9492
:100A50009E04E9CFDF91CF910895FC010190002021
:100A6000E9F73197AF01481B590BBC018BEE92E0BF
:100A70000C9420041F920F920FB60F9211242F9303
:100A80003F938F939F93AF93BF938091D2029091A6
:100A9000D302A091D402B091D5023091D10223E0CB
:100AA000230F2D3758F50196A11DB11D2093D102BA
:100AB0008093D2029093D302A093D402B093D50234
:100AC0008091D6029091D702A091D802B091D9021C
:100AD0000196A11DB11D8093D6029093D702A093D9
:100AE000D802B093D902BF91AF919F918F913F915E
:100AF0002F910F900FBE0F901F90189526E8230F8F
:100B00000296A11DB11DD2CF1F920F920FB60F9268
:100B100011242F933F934F935F936F937F938F9302
:100B20009F93AF93BF93EF93FF938091DF029091D8
:100B3000E002A091E102B091E202892B8A2B8B2B7B
:100B4000D1F19091DA02E091DB02F091DC02808138
:100B5000892780838091DF029091E002A091E102D9
:100B6000B091E202181619061A061B069CF4809131
:100B7000DF029091E002A091E102B091E2020197C0
:100B8000A109B1098093DF029093E002A093E102F2
:100B9000B093E202FF91EF91BF91AF919F918F913E
:100BA0007F916F915F914F913F912F910F900FBE69
:100BB0000F901F901895809102010E94F403EACFD4
:100BC0001F920F920FB60F9211242F933F934F93C2
:100BD0005F936F937F938F939F93AF93BF93EF93A5
:100BE000FF938BEE92E00E949E04FF91EF91BF91E4
:100BF000AF919F918F917F916F915F914F913F91B5
:100C00002F910F900FBE0F901F9018951F920F926B
:100C10000FB60F9211242F938F939F93EF93FF930F
:100C2000E091FB02F091FC028081E0910103F091E0
:100C3000020382FD1BC09081809104038F5F8F733C
:100C400020910503821741F0E0910403F0E0E551A3
:100C5000FD4F958F80930403FF91EF919F918F91AA
:100C60002F910F900FBE0F901F9018958081F4CF99
:100C7000789484B5826084BD84B5816084BD85B577
:100C8000826085BD85B5816085BD80916E00816083
:100C900080936E0010928100809181008260809329
:100CA000810080918100816080938100809180002B
:100CB0008160809380008091B10084608093B10056
:100CC0008091B00081608093B00080917A00846050
:100CD00080937A0080917A00826080937A0080917C
:100CE0007A00816080937A0080917A008068809396
:100CF0007A001092C100E091FB02F091FC0282E0C8
:100D00008083E091F702F091F8021082E091F902FD
:100D1000F091FA0280E1808310920303E091FF02D8
:100D2000F091000386E08083E091FD02F091FE02E5
:100D3000808180618083E091FD02F091FE028081DC
:100D400088608083E091FD02F091FE0280818068DE
:100D50008083E091FD02F091FE0280818F7D80838F
:100D60008FE492E00E942D0508EC12E0C8E4D2E086
:100D7000F99062E08F2D0E940D018F2D0E94B60028
:100D8000F80181938F01F2E0CF34DF0789F761E04A
:100D900088E00E940D015AE1252E312C60E0662E7C
:100DA00060E0762E71E2872E912C8091D002811125
:100DB00014C138ECE32E32E0F32E48E4A42E42E0D6
:100DC000B42E01E010E0F50151905F01852D0E94E5
:100DD000B600892B09F04BC0F7018081813009F002
:100DE00046C0F801EE0FFF1FE85CFD4FC080D180C8
:100DF000C114D104C9F1C091C602D091C70240E02C
:100E000050E0BA01C6010E943E01CC0FDD1FCC5359
:100E1000DE4F88819981C816D90609F0EAC084E5B9
:100E200092E00E942D0580E892E00E942D0561E08D
:100E30008DE00E94DF0062E370E080E090E00E94BD
:100E4000C10360E08DE00E94DF0062E370E080E0BB
:100E500090E00E94C1038091C6029091C702019662
:100E60009093C7028093C60288E00E94F403852D08
:100E70000E94B600F70181937F010F5F1F4F08307A
:100E8000110509F0A0CF8091C6029091C7020F977B
:100E90001CF081E08093CF028091CF02882309F477
:100EA0009CC08091C4029091C502892B21F486E9EF
:100EB00092E00E942D058091C4029091C502809716
:100EC00049F49092C5028092C4026DE78BEE92E0E5
:100ED0000E94C004C091C402D091C502C132D105A4
:100EE000B1F0CE01B1010E947509FC01E557FE4F3A
:100EF000DE01AB55BE4F60818C9168278BEE92E08E
:100F00000E94C0042196D093C502C093C4020091F0
:100F1000C2021091C3022091000130910101E80149
:100F2000CC0FDD1FFE01EB5EFE4F80819181289F7B
:100F30006001299FD00C389FD00C112461E08DE016
:100F40000E94DF006AE070E080E090E00E94C10350
:100F500060E08DE00E94DF00FE01EC53FE4F8081D7
:100F600091810D2C000CEE08FF081816190624F4C8
:100F7000B701A6010E943E010F5F1F4F1093C302ED
:100F80000093C2020B33110528F01092CF0281E0CA
:100F90008093D002C701B6010E94C10388E00E947D
:100FA000F40361E08DE00E94DF006AE070E080E021
:100FB00090E00E94C10360E08DE00E94DF00C70165
:100FC000B6010E947C082AE939E949E95EE30E94FA
:100FD000E0080E944B080E94C1036114710409F4E7
:100FE000E4CE0E948A04882309F4DFCE0E94000028
:100FF000DCCE83E892E00E942D0580E892E00E941A
:101000002D05C4E0D0E061E08DE00E94DF0064E6E1
:1010100070E080E090E00E94C10360E08DE00E94FB
:10102000DF0064E670E080E090E00E94C103219759
:1010300051F71092C7021092C60216CFEBEEF2E003
:101040001382128288EE93E0A0E0B0E0848395835F
:10105000A683B78387E091E09183808385EC90E05D
:101060009587848784EC90E09787868780EC90E072
:10107000918B808B81EC90E0938B828B82EC90E063
:10108000958B848B86EC90E0978B868B118E128EDD
:10109000138E148E08950E94BF0888F09F5798F011
:1010A000B92F9927B751B0F0E1F0660F771F881F6D
:1010B000991F1AF0BA95C9F714C0B13091F00E9487
:1010C000D908B1E008950C94D908672F782F8827A4
:1010D000B85F39F0B93FCCF3869577956795B395AE
:1010E000D9F73EF490958095709561957F4F8F4F1D
:1010F0009F4F0895E89409C097FB3EF49095809522
:10110000709561957F4F8F4F9F4F9923A9F0F92FCD
:1011100096E9BB279395F695879577956795B7954B
:10112000F111F8CFFAF4BB0F11F460FF1BC06F5F31
:101130007F4F8F4F9F4F16C0882311F096E911C043
:10114000772321F09EE8872F762F05C0662371F064
:1011500096E8862F70E060E02AF09A95660F771F78
:10116000881FDAF7880F9695879597F9089557FDA8
:101170009058440F551F59F05F3F71F04795880F05
:1011800097FB991F61F09F3F79F08795089512169C
:1011900013061406551FF2CF4695F1DF08C0161648
:1011A00017061806991FF1CF8695710561050894F9
:1011B0000895E894BB2766277727CB0197F9089510
:1011C0000E94F3080C9464090E94560938F00E94AA
:1011D0005D0920F0952311F00C944D090C945309EE
:1011E00011240C94DA080E94B70870F3959FC1F39C
:1011F000950F50E0551F629FF001729FBB27F00DC5
:10120000B11D639FAA27F00DB11DAA1F649F662719
:10121000B00DA11D661F829F2227B00DA11D621F68
:10122000739FB00DA11D621F839FA00D611D221F22
:10123000749F3327A00D611D231F849F600D211D06
:10124000822F762F6A2F11249F5750409AF0F1F089
:1012500088234AF0EE0FFF1FBB1F661F771F881FF2
:1012600091505040A9F79E3F510580F00C944D09D4
:101270000C94DA085F3FE4F3983ED4F386957795B3
:101280006795B795F795E7959F5FC1F7FE2B880F98
:10129000911D9695879597F9089597F99F6780E82E
:1012A00070E060E008959FEF80EC089500240A94B8
:1012B0001616170618060906089500240A94121631
:1012C0001306140605060895092E0394000C11F464
:1012D000882352F0BB0F40F4BF2B11F460FF04C011
:1012E0006F5F7F4F8F4F9F4F089597FB072E16F428
:1012F000009407D077FD09D00E94D50907FC05D0DE
:101300003EF4909581959F4F0895709561957F4F1C
:101310000895A1E21A2EAA1BBB1BFD010DC0AA1F36
:10132000BB1FEE1FFF1FA217B307E407F50720F04E
:10133000A21BB30BE40BF50B661F771F881F991FC9
:101340001A9469F760957095809590959B01AC0112
:10135000BD01CF010895052E97FB1EF400940E9455
:10136000C20957FD07D00E94890907FC03D04EF43B
:101370000C94C20950954095309521953F4F4F4FA1
:101380005F4F089590958095709561957F4F8F4F31
:101390009F4F08950E94EF09A59F900DB49F900D57
:1013A000A49F800D911D11240895AA1BBB1B51E120
:1013B00007C0AA1FBB1FA617B70710F0A61BB70BC5
:1013C000881F991F5A95A9F780959095BC01CD016A
:1013D0000895EE0FFF1F0590F491E02D0994A29F50
:1013E000B001B39FC001A39F700D811D1124911DF9
:1013F000B29F700D811D1124911D0895F894FFCFA7
:101400006400FF00000000C00420044D040D057EB0
:10141000045C0470040100010001000100030003EA
:1014200000060001000100010001000300030003A9
:10143000000100020001000100010001000300039F
:101440000003000100020002000200040008000185
:10145000000100010001000300030006000100017B
:10146000000100010003000300030001000200016D
:10147000000100010001000300030003000100025D
:1014800000020002000400080004004E45564147D7
:101490004F4E4E41474956454E455641474F4E4E99
:1014A00041474956452F3732342E217E112F743F44
:1014B00065371122662F297B112928317A093C7E54
:1014C00030093437D201D2019F019F01BA02BA021A
:1014D0006E02D201D2019F019F016E026E022A02AA
:1014E0000B02D2012A022A022A022A022A026E02D0
:1014F0000B02D2019F019F019F016E022A02D201BD
:10150000D2019F019F01BA02BA026E02D201D2013A
:101510009F019F013F030B022A020B02D2012A0204
:101520002A022A022A022A026E020B02D2019F011B
:10153000FFFF9F016E022A02FFFF9F01D2010B02F3
:101540002A026E02BA02E4020C0B0A0907060577AA
:101550006F770A00596F7520776F756C646E27740A
:101560002067657420746869732066726F6D2061EE
:101570006E79206F7468657220677579203A29004A
:101580000D0A00596F75206C6574206D6520646FBD
:10159000776E203A28004E6576657220676F6E6E12
:1015A00061206769766521204E6576657220676FD8
:1015B0006E6E612067697665210A70746374667B5C
:0215C000000029
:107E0000112484B714BE81FFF0D085E080938100F7
:107E100082E08093C00088E18093C10086E0809377
:107E2000C20080E18093C4008EE0C9D0259A86E02C
:107E300020E33CEF91E0309385002093840096BBD3
:107E4000B09BFECF1D9AA8958150A9F7CC24DD24C4
:107E500088248394B5E0AB2EA1E19A2EF3E0BF2EE7
:107E6000A2D0813461F49FD0082FAFD0023811F036
:107E7000013811F484E001C083E08DD089C08234E0
:107E800011F484E103C0853419F485E0A6D080C0E4
:107E9000853579F488D0E82EFF2485D0082F10E0AE
:107EA000102F00270E291F29000F111F8ED06801E7
:107EB0006FC0863521F484E090D080E0DECF843638
:107EC00009F040C070D06FD0082F6DD080E0C81688
:107ED00080E7D80618F4F601B7BEE895C0E0D1E017
:107EE00062D089930C17E1F7F0E0CF16F0E7DF06D8
:107EF00018F0F601B7BEE89568D007B600FCFDCFD4
:107F0000A601A0E0B1E02C9130E011968C91119780
:107F100090E0982F8827822B932B1296FA010C0160
:107F200087BEE89511244E5F5F4FF1E0A038BF0790
:107F300051F7F601A7BEE89507B600FCFDCF97BE46
:107F4000E89526C08437B1F42ED02DD0F82E2BD052
:107F50003CD0F601EF2C8F010F5F1F4F84911BD097
:107F6000EA94F801C1F70894C11CD11CFA94CF0C13
:107F7000D11C0EC0853739F428D08EE10CD085E9AC
:107F80000AD08FE07ACF813511F488E018D01DD067
:107F900080E101D065CF982F8091C00085FFFCCF94
:107FA0009093C60008958091C00087FFFCCF809118
:107FB000C00084FD01C0A8958091C6000895E0E648
:107FC000F0E098E1908380830895EDDF803219F02E
:107FD00088E0F5DFFFCF84E1DECF1F93182FE3DFCA
:107FE0001150E9F7F2DF1F91089580E0E8DFEE27F6
:047FF000FF270994CA
:027FFE00040479
:00000001FF
